{
  "_format": "hh-sol-artifact-1",
  "contractName": "UserAuthentication",
  "sourceName": "contracts/UserAuthentication.sol",
  "abi": [
    {
      "anonymous": false,
      "inputs": [
        {
          "indexed": true,
          "internalType": "address",
          "name": "userAddress",
          "type": "address"
        },
        {
          "indexed": false,
          "internalType": "uint256",
          "name": "timestamp",
          "type": "uint256"
        }
      ],
      "name": "UserLoggedIn",
      "type": "event"
    },
    {
      "anonymous": false,
      "inputs": [
        {
          "indexed": true,
          "internalType": "address",
          "name": "userAddress",
          "type": "address"
        },
        {
          "indexed": false,
          "internalType": "string",
          "name": "username",
          "type": "string"
        },
        {
          "indexed": false,
          "internalType": "uint256",
          "name": "timestamp",
          "type": "uint256"
        }
      ],
      "name": "UserRegistered",
      "type": "event"
    },
    {
      "inputs": [
        {
          "internalType": "address",
          "name": "_userAddress",
          "type": "address"
        }
      ],
      "name": "getUserInfo",
      "outputs": [
        {
          "internalType": "string",
          "name": "username",
          "type": "string"
        },
        {
          "internalType": "uint256",
          "name": "registrationTimestamp",
          "type": "uint256"
        },
        {
          "internalType": "bool",
          "name": "isRegistered",
          "type": "bool"
        }
      ],
      "stateMutability": "view",
      "type": "function"
    },
    {
      "inputs": [
        {
          "internalType": "address",
          "name": "_userAddress",
          "type": "address"
        }
      ],
      "name": "isUserRegistered",
      "outputs": [
        {
          "internalType": "bool",
          "name": "",
          "type": "bool"
        }
      ],
      "stateMutability": "view",
      "type": "function"
    },
    {
      "inputs": [
        {
          "internalType": "string",
          "name": "_username",
          "type": "string"
        }
      ],
      "name": "isUsernameAvailable",
      "outputs": [
        {
          "internalType": "bool",
          "name": "",
          "type": "bool"
        }
      ],
      "stateMutability": "view",
      "type": "function"
    },
    {
      "inputs": [],
      "name": "login",
      "outputs": [],
      "stateMutability": "nonpayable",
      "type": "function"
    },
    {
      "inputs": [
        {
          "internalType": "string",
          "name": "_username",
          "type": "string"
        }
      ],
      "name": "registerUser",
      "outputs": [],
      "stateMutability": "nonpayable",
      "type": "function"
    },
    {
      "inputs": [
        {
          "internalType": "string",
          "name": "",
          "type": "string"
        }
      ],
      "name": "usernameToAddress",
      "outputs": [
        {
          "internalType": "address",
          "name": "",
          "type": "address"
        }
      ],
      "stateMutability": "view",
      "type": "function"
    },
    {
      "inputs": [
        {
          "internalType": "address",
          "name": "",
          "type": "address"
        }
      ],
      "name": "users",
      "outputs": [
        {
          "internalType": "address",
          "name": "walletAddress",
          "type": "address"
        },
        {
          "internalType": "string",
          "name": "username",
          "type": "string"
        },
        {
          "internalType": "uint256",
          "name": "registrationTimestamp",
          "type": "uint256"
        },
        {
          "internalType": "bool",
          "name": "isRegistered",
          "type": "bool"
        }
      ],
      "stateMutability": "view",
      "type": "function"
    }
  ],
  "bytecode": "0x608060405234801561001057600080fd5b506109b4806100206000396000f3fe608060405234801561001057600080fd5b506004361061007d5760003560e01c8063a87430ba1161005b578063a87430ba146100fd578063b34e97e814610120578063f69c6dec14610128578063f825f1431461013b57600080fd5b8063163f7522146100825780636386c1c7146100c6578063704f1b94146100e8575b600080fd5b6100b161009036600461064a565b6001600160a01b031660009081526020819052604090206003015460ff1690565b60405190151581526020015b60405180910390f35b6100d96100d436600461064a565b610187565b6040516100bd939291906106ca565b6100fb6100f636600461070a565b61028a565b005b61011061010b36600461064a565b6104c0565b6040516100bd94939291906107bb565b6100fb61057f565b6100b161013636600461070a565b61060e565b61016f61014936600461070a565b80516020818301810180516001825292820191909301209152546001600160a01b031681565b6040516001600160a01b0390911681526020016100bd565b6001600160a01b03808216600090815260208181526040808320815160808101909252805490941681526001840180546060958594859493919290840191906101cf906107f7565b80601f01602080910402602001604051908101604052809291908181526020018280546101fb906107f7565b80156102485780601f1061021d57610100808354040283529160200191610248565b820191906000526020600020905b81548152906001019060200180831161022b57829003601f168201915b5050509183525050600282015460208083019190915260039092015460ff16151560409182015290820151908201516060909201519097919650945092505050565b3360009081526020819052604090206003015460ff16156102f25760405162461bcd60e51b815260206004820152601760248201527f5573657220616c7265616479207265676973746572656400000000000000000060448201526064015b60405180910390fd5b60008151116103435760405162461bcd60e51b815260206004820152601860248201527f557365726e616d652063616e6e6f7420626520656d707479000000000000000060448201526064016102e9565b60006001600160a01b031660018260405161035e9190610831565b908152604051908190036020019020546001600160a01b0316146103bd5760405162461bcd60e51b81526020600482015260166024820152752ab9b2b93730b6b29030b63932b0b23c903a30b5b2b760511b60448201526064016102e9565b60408051608081018252338082526020808301858152428486015260016060850181905260009384529183905293909120825181546001600160a01b0319166001600160a01b0390911617815592519192919082019061041d908261089c565b5060408281015160028301556060909201516003909101805460ff1916911515919091179055513390600190610454908490610831565b90815260405190819003602001812080546001600160a01b03939093166001600160a01b03199093169290921790915533907f89105a1c6a3c2fbd471255c66a31ccab604af5697f67d7e2e9a0028c5e4dbd91906104b5908490429061095c565b60405180910390a250565b600060208190529081526040902080546001820180546001600160a01b0390921692916104ec906107f7565b80601f0160208091040260200160405190810160405280929190818152602001828054610518906107f7565b80156105655780601f1061053a57610100808354040283529160200191610565565b820191906000526020600020905b81548152906001019060200180831161054857829003601f168201915b50505050600283015460039093015491929160ff16905084565b3360009081526020819052604090206003015460ff166105d75760405162461bcd60e51b8152602060048201526013602482015272155cd95c881b9bdd081c9959da5cdd195c9959606a1b60448201526064016102e9565b60405142815233907fd48e107b75fb4263f47c6775f9695146041b81f4e0eac8b4d6075fd5756cba949060200160405180910390a2565b6000806001600160a01b031660018360405161062a9190610831565b908152604051908190036020019020546001600160a01b03161492915050565b60006020828403121561065c57600080fd5b81356001600160a01b038116811461067357600080fd5b9392505050565b60005b8381101561069557818101518382015260200161067d565b50506000910152565b600081518084526106b681602086016020860161067a565b601f01601f19169290920160200192915050565b6060815260006106dd606083018661069e565b602083019490945250901515604090910152919050565b634e487b7160e01b600052604160045260246000fd5b60006020828403121561071c57600080fd5b813567ffffffffffffffff8082111561073457600080fd5b818401915084601f83011261074857600080fd5b81358181111561075a5761075a6106f4565b604051601f8201601f19908116603f01168101908382118183101715610782576107826106f4565b8160405282815287602084870101111561079b57600080fd5b826020860160208301376000928101602001929092525095945050505050565b6001600160a01b03851681526080602082018190526000906107df9083018661069e565b60408301949094525090151560609091015292915050565b600181811c9082168061080b57607f821691505b60208210810361082b57634e487b7160e01b600052602260045260246000fd5b50919050565b6000825161084381846020870161067a565b9190910192915050565b601f82111561089757600081815260208120601f850160051c810160208610156108745750805b601f850160051c820191505b8181101561089357828155600101610880565b5050505b505050565b815167ffffffffffffffff8111156108b6576108b66106f4565b6108ca816108c484546107f7565b8461084d565b602080601f8311600181146108ff57600084156108e75750858301515b600019600386901b1c1916600185901b178555610893565b600085815260208120601f198616915b8281101561092e5788860151825594840194600190910190840161090f565b508582101561094c5787850151600019600388901b60f8161c191681555b5050505050600190811b01905550565b60408152600061096f604083018561069e565b9050826020830152939250505056fea2646970667358221220ab3205613719af25f9ec10651caf5b747327a63739706f60ab9eba35f9403aea64736f6c63430008130033",
  "linkReferences": {},
  "deployedLinkReferences": {}
}